{
  "_format": "hh-sol-artifact-1",
  "contractName": "MyEpicNFT",
  "sourceName": "contracts/MyEpicNFT.sol",
  "abi": [
    {
      "inputs": [],
      "stateMutability": "nonpayable",
      "type": "constructor"
    },
    {
      "anonymous": false,
      "inputs": [
        {
          "indexed": true,
          "internalType": "address",
          "name": "owner",
          "type": "address"
        },
        {
          "indexed": true,
          "internalType": "address",
          "name": "approved",
          "type": "address"
        },
        {
          "indexed": true,
          "internalType": "uint256",
          "name": "tokenId",
          "type": "uint256"
        }
      ],
      "name": "Approval",
      "type": "event"
    },
    {
      "anonymous": false,
      "inputs": [
        {
          "indexed": true,
          "internalType": "address",
          "name": "owner",
          "type": "address"
        },
        {
          "indexed": true,
          "internalType": "address",
          "name": "operator",
          "type": "address"
        },
        {
          "indexed": false,
          "internalType": "bool",
          "name": "approved",
          "type": "bool"
        }
      ],
      "name": "ApprovalForAll",
      "type": "event"
    },
    {
      "anonymous": false,
      "inputs": [
        {
          "indexed": false,
          "internalType": "address",
          "name": "sender",
          "type": "address"
        },
        {
          "indexed": false,
          "internalType": "uint256",
          "name": "tokenId",
          "type": "uint256"
        }
      ],
      "name": "NewEpicNFTMinted",
      "type": "event"
    },
    {
      "anonymous": false,
      "inputs": [
        {
          "indexed": true,
          "internalType": "address",
          "name": "from",
          "type": "address"
        },
        {
          "indexed": true,
          "internalType": "address",
          "name": "to",
          "type": "address"
        },
        {
          "indexed": true,
          "internalType": "uint256",
          "name": "tokenId",
          "type": "uint256"
        }
      ],
      "name": "Transfer",
      "type": "event"
    },
    {
      "inputs": [
        {
          "internalType": "address",
          "name": "to",
          "type": "address"
        },
        {
          "internalType": "uint256",
          "name": "tokenId",
          "type": "uint256"
        }
      ],
      "name": "approve",
      "outputs": [],
      "stateMutability": "nonpayable",
      "type": "function"
    },
    {
      "inputs": [
        {
          "internalType": "address",
          "name": "owner",
          "type": "address"
        }
      ],
      "name": "balanceOf",
      "outputs": [
        {
          "internalType": "uint256",
          "name": "",
          "type": "uint256"
        }
      ],
      "stateMutability": "view",
      "type": "function"
    },
    {
      "inputs": [
        {
          "internalType": "uint256",
          "name": "tokenId",
          "type": "uint256"
        }
      ],
      "name": "getApproved",
      "outputs": [
        {
          "internalType": "address",
          "name": "",
          "type": "address"
        }
      ],
      "stateMutability": "view",
      "type": "function"
    },
    {
      "inputs": [
        {
          "internalType": "address",
          "name": "owner",
          "type": "address"
        },
        {
          "internalType": "address",
          "name": "operator",
          "type": "address"
        }
      ],
      "name": "isApprovedForAll",
      "outputs": [
        {
          "internalType": "bool",
          "name": "",
          "type": "bool"
        }
      ],
      "stateMutability": "view",
      "type": "function"
    },
    {
      "inputs": [],
      "name": "mint",
      "outputs": [],
      "stateMutability": "nonpayable",
      "type": "function"
    },
    {
      "inputs": [],
      "name": "name",
      "outputs": [
        {
          "internalType": "string",
          "name": "",
          "type": "string"
        }
      ],
      "stateMutability": "view",
      "type": "function"
    },
    {
      "inputs": [
        {
          "internalType": "uint256",
          "name": "tokenId",
          "type": "uint256"
        }
      ],
      "name": "ownerOf",
      "outputs": [
        {
          "internalType": "address",
          "name": "",
          "type": "address"
        }
      ],
      "stateMutability": "view",
      "type": "function"
    },
    {
      "inputs": [
        {
          "internalType": "address",
          "name": "from",
          "type": "address"
        },
        {
          "internalType": "address",
          "name": "to",
          "type": "address"
        },
        {
          "internalType": "uint256",
          "name": "tokenId",
          "type": "uint256"
        }
      ],
      "name": "safeTransferFrom",
      "outputs": [],
      "stateMutability": "nonpayable",
      "type": "function"
    },
    {
      "inputs": [
        {
          "internalType": "address",
          "name": "from",
          "type": "address"
        },
        {
          "internalType": "address",
          "name": "to",
          "type": "address"
        },
        {
          "internalType": "uint256",
          "name": "tokenId",
          "type": "uint256"
        },
        {
          "internalType": "bytes",
          "name": "_data",
          "type": "bytes"
        }
      ],
      "name": "safeTransferFrom",
      "outputs": [],
      "stateMutability": "nonpayable",
      "type": "function"
    },
    {
      "inputs": [
        {
          "internalType": "address",
          "name": "operator",
          "type": "address"
        },
        {
          "internalType": "bool",
          "name": "approved",
          "type": "bool"
        }
      ],
      "name": "setApprovalForAll",
      "outputs": [],
      "stateMutability": "nonpayable",
      "type": "function"
    },
    {
      "inputs": [
        {
          "internalType": "bytes4",
          "name": "interfaceId",
          "type": "bytes4"
        }
      ],
      "name": "supportsInterface",
      "outputs": [
        {
          "internalType": "bool",
          "name": "",
          "type": "bool"
        }
      ],
      "stateMutability": "view",
      "type": "function"
    },
    {
      "inputs": [],
      "name": "symbol",
      "outputs": [
        {
          "internalType": "string",
          "name": "",
          "type": "string"
        }
      ],
      "stateMutability": "view",
      "type": "function"
    },
    {
      "inputs": [
        {
          "internalType": "uint256",
          "name": "tokenId",
          "type": "uint256"
        }
      ],
      "name": "tokenURI",
      "outputs": [
        {
          "internalType": "string",
          "name": "",
          "type": "string"
        }
      ],
      "stateMutability": "view",
      "type": "function"
    },
    {
      "inputs": [
        {
          "internalType": "address",
          "name": "from",
          "type": "address"
        },
        {
          "internalType": "address",
          "name": "to",
          "type": "address"
        },
        {
          "internalType": "uint256",
          "name": "tokenId",
          "type": "uint256"
        }
      ],
      "name": "transferFrom",
      "outputs": [],
      "stateMutability": "nonpayable",
      "type": "function"
    },
    {
      "inputs": [],
      "name": "viewCurrentSupply",
      "outputs": [
        {
          "internalType": "uint256",
          "name": "",
          "type": "uint256"
        }
      ],
      "stateMutability": "view",
      "type": "function"
    },
    {
      "inputs": [],
      "name": "viewMaxSupply",
      "outputs": [
        {
          "internalType": "uint256",
          "name": "",
          "type": "uint256"
        }
      ],
      "stateMutability": "view",
      "type": "function"
    }
  ],
  "bytecode": "0x6080604052603260085560006009553480156200001b57600080fd5b506040518060400160405280600981526020017f5371756172654e465400000000000000000000000000000000000000000000008152506040518060400160405280600681526020017f53515541524500000000000000000000000000000000000000000000000000008152508160009080519060200190620000a0929190620001d9565b508060019080519060200190620000b9929190620001d9565b505050620001076040518060400160405280601e81526020017f54686973206973206d79204e465420636f6e74726163742e2057686f612100008152506200010d60201b62000dc21760201c565b620003b6565b620001ad81604051602401620001249190620002ca565b6040516020818303038152906040527f41304fac000000000000000000000000000000000000000000000000000000007bffffffffffffffffffffffffffffffffffffffffffffffffffffffff19166020820180517bffffffffffffffffffffffffffffffffffffffffffffffffffffffff8381831617835250505050620001b060201b60201c565b50565b60008151905060006a636f6e736f6c652e6c6f679050602083016000808483855afa5050505050565b828054620001e79062000340565b90600052602060002090601f0160209004810192826200020b576000855562000257565b82601f106200022657805160ff191683800117855562000257565b8280016001018555821562000257579182015b828111156200025657825182559160200191906001019062000239565b5b5090506200026691906200026a565b5090565b5b80821115620002855760008160009055506001016200026b565b5090565b60006200029682620002ee565b620002a28185620002f9565b9350620002b48185602086016200030a565b620002bf81620003a5565b840191505092915050565b60006020820190508181036000830152620002e6818462000289565b905092915050565b600081519050919050565b600082825260208201905092915050565b60005b838110156200032a5780820151818401526020810190506200030d565b838111156200033a576000848401525b50505050565b600060028204905060018216806200035957607f821691505b6020821081141562000370576200036f62000376565b5b50919050565b7f4e487b7100000000000000000000000000000000000000000000000000000000600052602260045260246000fd5b6000601f19601f8301169050919050565b614c1e80620003c66000396000f3fe608060405234801561001057600080fd5b50600436106101005760003560e01c80636352211e11610097578063b88d4fde11610066578063b88d4fde14610299578063c87b56dd146102b5578063e985e9c5146102e5578063f4b343301461031557610100565b80636352211e146101ff57806370a082311461022f57806395d89b411461025f578063a22cb4651461027d57610100565b80631249c58b116100d35780631249c58b1461019f57806323b872dd146101a95780632a4538cf146101c557806342842e0e146101e357610100565b806301ffc9a71461010557806306fdde0314610135578063081812fc14610153578063095ea7b314610183575b600080fd5b61011f600480360381019061011a9190611e7a565b610333565b60405161012c91906122cc565b60405180910390f35b61013d610415565b60405161014a91906122e7565b60405180910390f35b61016d60048036038101906101689190611ecc565b6104a7565b60405161017a919061223c565b60405180910390f35b61019d60048036038101906101989190611e3e565b61052c565b005b6101a7610644565b005b6101c360048036038101906101be9190611d38565b610769565b005b6101cd6107c9565b6040516101da9190612567565b60405180910390f35b6101fd60048036038101906101f89190611d38565b6107d3565b005b61021960048036038101906102149190611ecc565b6107f3565b604051610226919061223c565b60405180910390f35b61024960048036038101906102449190611cd3565b6108a5565b6040516102569190612567565b60405180910390f35b61026761095d565b60405161027491906122e7565b60405180910390f35b61029760048036038101906102929190611e02565b6109ef565b005b6102b360048036038101906102ae9190611d87565b610b70565b005b6102cf60048036038101906102ca9190611ecc565b610bd2565b6040516102dc91906122e7565b60405180910390f35b6102ff60048036038101906102fa9190611cfc565b610d24565b60405161030c91906122cc565b60405180910390f35b61031d610db8565b60405161032a9190612567565b60405180910390f35b60007f80ac58cd000000000000000000000000000000000000000000000000000000007bffffffffffffffffffffffffffffffffffffffffffffffffffffffff1916827bffffffffffffffffffffffffffffffffffffffffffffffffffffffff191614806103fe57507f5b5e139f000000000000000000000000000000000000000000000000000000007bffffffffffffffffffffffffffffffffffffffffffffffffffffffff1916827bffffffffffffffffffffffffffffffffffffffffffffffffffffffff1916145b8061040e575061040d82610e5b565b5b9050919050565b6060600080546104249061278c565b80601f01602080910402602001604051908101604052809291908181526020018280546104509061278c565b801561049d5780601f106104725761010080835404028352916020019161049d565b820191906000526020600020905b81548152906001019060200180831161048057829003601f168201915b5050505050905090565b60006104b282610ec5565b6104f1576040517f08c379a00000000000000000000000000000000000000000000000000000000081526004016104e8906124a7565b60405180910390fd5b6004600083815260200190815260200160002060009054906101000a900473ffffffffffffffffffffffffffffffffffffffff169050919050565b6000610537826107f3565b90508073ffffffffffffffffffffffffffffffffffffffff168373ffffffffffffffffffffffffffffffffffffffff1614156105a8576040517f08c379a000000000000000000000000000000000000000000000000000000000815260040161059f90612527565b60405180910390fd5b8073ffffffffffffffffffffffffffffffffffffffff166105c7610f31565b73ffffffffffffffffffffffffffffffffffffffff1614806105f657506105f5816105f0610f31565b610d24565b5b610635576040517f08c379a000000000000000000000000000000000000000000000000000000000815260040161062c906123e7565b60405180910390fd5b61063f8383610f39565b505050565b6008546009541061068a576040517f08c379a0000000000000000000000000000000000000000000000000000000008152600401610681906124c7565b60405180910390fd5b60006106966007610ff2565b90506106a23382611000565b6106c78160405180611dc00160405280611d898152602001612e60611d89913961101e565b6107076040518060400160405280601c81526020017f4e465420257320686173206265656e206d696e74656420746f202573000000008152508233611092565b6107116007611131565b610727600160095461114790919063ffffffff16565b6009819055507febb98688741ffa4c7589bf325de30cf7becb63de567842e1ccdb6cb949fdc82c338260405161075e9291906122a3565b60405180910390a150565b61077a610774610f31565b8261115d565b6107b9576040517f08c379a00000000000000000000000000000000000000000000000000000000081526004016107b090612547565b60405180910390fd5b6107c483838361123b565b505050565b6000600954905090565b6107ee83838360405180602001604052806000815250610b70565b505050565b6000806002600084815260200190815260200160002060009054906101000a900473ffffffffffffffffffffffffffffffffffffffff169050600073ffffffffffffffffffffffffffffffffffffffff168173ffffffffffffffffffffffffffffffffffffffff16141561089c576040517f08c379a000000000000000000000000000000000000000000000000000000000815260040161089390612427565b60405180910390fd5b80915050919050565b60008073ffffffffffffffffffffffffffffffffffffffff168273ffffffffffffffffffffffffffffffffffffffff161415610916576040517f08c379a000000000000000000000000000000000000000000000000000000000815260040161090d90612407565b60405180910390fd5b600360008373ffffffffffffffffffffffffffffffffffffffff1673ffffffffffffffffffffffffffffffffffffffff168152602001908152602001600020549050919050565b60606001805461096c9061278c565b80601f01602080910402602001604051908101604052809291908181526020018280546109989061278c565b80156109e55780601f106109ba576101008083540402835291602001916109e5565b820191906000526020600020905b8154815290600101906020018083116109c857829003601f168201915b5050505050905090565b6109f7610f31565b73ffffffffffffffffffffffffffffffffffffffff168273ffffffffffffffffffffffffffffffffffffffff161415610a65576040517f08c379a0000000000000000000000000000000000000000000000000000000008152600401610a5c906123a7565b60405180910390fd5b8060056000610a72610f31565b73ffffffffffffffffffffffffffffffffffffffff1673ffffffffffffffffffffffffffffffffffffffff16815260200190815260200160002060008473ffffffffffffffffffffffffffffffffffffffff1673ffffffffffffffffffffffffffffffffffffffff16815260200190815260200160002060006101000a81548160ff0219169083151502179055508173ffffffffffffffffffffffffffffffffffffffff16610b1f610f31565b73ffffffffffffffffffffffffffffffffffffffff167f17307eab39ab6107e8899845ad3d59bd9653f200f220920489ca2b5937696c3183604051610b6491906122cc565b60405180910390a35050565b610b81610b7b610f31565b8361115d565b610bc0576040517f08c379a0000000000000000000000000000000000000000000000000000000008152600401610bb790612547565b60405180910390fd5b610bcc84848484611497565b50505050565b6060610bdd82610ec5565b610c1c576040517f08c379a0000000000000000000000000000000000000000000000000000000008152600401610c1390612487565b60405180910390fd5b6000600660008481526020019081526020016000208054610c3c9061278c565b80601f0160208091040260200160405190810160405280929190818152602001828054610c689061278c565b8015610cb55780601f10610c8a57610100808354040283529160200191610cb5565b820191906000526020600020905b815481529060010190602001808311610c9857829003601f168201915b505050505090506000610cc66114f3565b9050600081511415610cdc578192505050610d1f565b600082511115610d11578082604051602001610cf9929190612218565b60405160208183030381529060405292505050610d1f565b610d1a8461150a565b925050505b919050565b6000600560008473ffffffffffffffffffffffffffffffffffffffff1673ffffffffffffffffffffffffffffffffffffffff16815260200190815260200160002060008373ffffffffffffffffffffffffffffffffffffffff1673ffffffffffffffffffffffffffffffffffffffff16815260200190815260200160002060009054906101000a900460ff16905092915050565b6000600854905090565b610e5881604051602401610dd691906122e7565b6040516020818303038152906040527f41304fac000000000000000000000000000000000000000000000000000000007bffffffffffffffffffffffffffffffffffffffffffffffffffffffff19166020820180517bffffffffffffffffffffffffffffffffffffffffffffffffffffffff83818316178352505050506115b1565b50565b60007f01ffc9a7000000000000000000000000000000000000000000000000000000007bffffffffffffffffffffffffffffffffffffffffffffffffffffffff1916827bffffffffffffffffffffffffffffffffffffffffffffffffffffffff1916149050919050565b60008073ffffffffffffffffffffffffffffffffffffffff166002600084815260200190815260200160002060009054906101000a900473ffffffffffffffffffffffffffffffffffffffff1673ffffffffffffffffffffffffffffffffffffffff1614159050919050565b600033905090565b816004600083815260200190815260200160002060006101000a81548173ffffffffffffffffffffffffffffffffffffffff021916908373ffffffffffffffffffffffffffffffffffffffff160217905550808273ffffffffffffffffffffffffffffffffffffffff16610fac836107f3565b73ffffffffffffffffffffffffffffffffffffffff167f8c5be1e5ebec7d5bd14f71427d1e84f3dd0314c0f7b2291e5b200ac8c7c3b92560405160405180910390a45050565b600081600001549050919050565b61101a8282604051806020016040528060008152506115da565b5050565b61102782610ec5565b611066576040517f08c379a000000000000000000000000000000000000000000000000000000000815260040161105d90612447565b60405180910390fd5b8060066000848152602001908152602001600020908051906020019061108d929190611b5f565b505050565b61112c8383836040516024016110aa93929190612309565b6040516020818303038152906040527fe3849f79000000000000000000000000000000000000000000000000000000007bffffffffffffffffffffffffffffffffffffffffffffffffffffffff19166020820180517bffffffffffffffffffffffffffffffffffffffffffffffffffffffff83818316178352505050506115b1565b505050565b6001816000016000828254019250508190555050565b60008183611155919061261b565b905092915050565b600061116882610ec5565b6111a7576040517f08c379a000000000000000000000000000000000000000000000000000000000815260040161119e906123c7565b60405180910390fd5b60006111b2836107f3565b90508073ffffffffffffffffffffffffffffffffffffffff168473ffffffffffffffffffffffffffffffffffffffff16148061122157508373ffffffffffffffffffffffffffffffffffffffff16611209846104a7565b73ffffffffffffffffffffffffffffffffffffffff16145b8061123257506112318185610d24565b5b91505092915050565b8273ffffffffffffffffffffffffffffffffffffffff1661125b826107f3565b73ffffffffffffffffffffffffffffffffffffffff16146112b1576040517f08c379a00000000000000000000000000000000000000000000000000000000081526004016112a8906124e7565b60405180910390fd5b600073ffffffffffffffffffffffffffffffffffffffff168273ffffffffffffffffffffffffffffffffffffffff161415611321576040517f08c379a000000000000000000000000000000000000000000000000000000000815260040161131890612387565b60405180910390fd5b61132c838383611635565b611337600082610f39565b6001600360008573ffffffffffffffffffffffffffffffffffffffff1673ffffffffffffffffffffffffffffffffffffffff168152602001908152602001600020600082825461138791906126a2565b925050819055506001600360008473ffffffffffffffffffffffffffffffffffffffff1673ffffffffffffffffffffffffffffffffffffffff16815260200190815260200160002060008282546113de919061261b565b92505081905550816002600083815260200190815260200160002060006101000a81548173ffffffffffffffffffffffffffffffffffffffff021916908373ffffffffffffffffffffffffffffffffffffffff160217905550808273ffffffffffffffffffffffffffffffffffffffff168473ffffffffffffffffffffffffffffffffffffffff167fddf252ad1be2c89b69c2b068fc378daa952ba7f163c4a11628f55a4df523b3ef60405160405180910390a4505050565b6114a284848461123b565b6114ae8484848461163a565b6114ed576040517f08c379a00000000000000000000000000000000000000000000000000000000081526004016114e490612347565b60405180910390fd5b50505050565b606060405180602001604052806000815250905090565b606061151582610ec5565b611554576040517f08c379a000000000000000000000000000000000000000000000000000000000815260040161154b90612507565b60405180910390fd5b600061155e6114f3565b9050600081511161157e57604051806020016040528060008152506115a9565b80611588846117d1565b604051602001611599929190612218565b6040516020818303038152906040525b915050919050565b60008151905060006a636f6e736f6c652e6c6f679050602083016000808483855afa5050505050565b6115e4838361197e565b6115f1600084848461163a565b611630576040517f08c379a000000000000000000000000000000000000000000000000000000000815260040161162790612347565b60405180910390fd5b505050565b505050565b600061165b8473ffffffffffffffffffffffffffffffffffffffff16611b4c565b156117c4578373ffffffffffffffffffffffffffffffffffffffff1663150b7a02611684610f31565b8786866040518563ffffffff1660e01b81526004016116a69493929190612257565b602060405180830381600087803b1580156116c057600080fd5b505af19250505080156116f157506040513d601f19601f820116820180604052508101906116ee9190611ea3565b60015b611774573d8060008114611721576040519150601f19603f3d011682016040523d82523d6000602084013e611726565b606091505b5060008151141561176c576040517f08c379a000000000000000000000000000000000000000000000000000000000815260040161176390612347565b60405180910390fd5b805181602001fd5b63150b7a0260e01b7bffffffffffffffffffffffffffffffffffffffffffffffffffffffff1916817bffffffffffffffffffffffffffffffffffffffffffffffffffffffff1916149150506117c9565b600190505b949350505050565b60606000821415611819576040518060400160405280600181526020017f30000000000000000000000000000000000000000000000000000000000000008152509050611979565b600082905060005b6000821461184b578080611834906127ef565b915050600a826118449190612671565b9150611821565b60008167ffffffffffffffff81111561188d577f4e487b7100000000000000000000000000000000000000000000000000000000600052604160045260246000fd5b6040519080825280601f01601f1916602001820160405280156118bf5781602001600182028036833780820191505090505b5090505b60008514611972576001826118d891906126a2565b9150600a856118e79190612838565b60306118f3919061261b565b60f81b81838151811061192f577f4e487b7100000000000000000000000000000000000000000000000000000000600052603260045260246000fd5b60200101907effffffffffffffffffffffffffffffffffffffffffffffffffffffffffffff1916908160001a905350600a8561196b9190612671565b94506118c3565b8093505050505b919050565b600073ffffffffffffffffffffffffffffffffffffffff168273ffffffffffffffffffffffffffffffffffffffff1614156119ee576040517f08c379a00000000000000000000000000000000000000000000000000000000081526004016119e590612467565b60405180910390fd5b6119f781610ec5565b15611a37576040517f08c379a0000000000000000000000000000000000000000000000000000000008152600401611a2e90612367565b60405180910390fd5b611a4360008383611635565b6001600360008473ffffffffffffffffffffffffffffffffffffffff1673ffffffffffffffffffffffffffffffffffffffff1681526020019081526020016000206000828254611a93919061261b565b92505081905550816002600083815260200190815260200160002060006101000a81548173ffffffffffffffffffffffffffffffffffffffff021916908373ffffffffffffffffffffffffffffffffffffffff160217905550808273ffffffffffffffffffffffffffffffffffffffff16600073ffffffffffffffffffffffffffffffffffffffff167fddf252ad1be2c89b69c2b068fc378daa952ba7f163c4a11628f55a4df523b3ef60405160405180910390a45050565b600080823b905060008111915050919050565b828054611b6b9061278c565b90600052602060002090601f016020900481019282611b8d5760008555611bd4565b82601f10611ba657805160ff1916838001178555611bd4565b82800160010185558215611bd4579182015b82811115611bd3578251825591602001919060010190611bb8565b5b509050611be19190611be5565b5090565b5b80821115611bfe576000816000905550600101611be6565b5090565b6000611c15611c10846125a7565b612582565b905082815260208101848484011115611c2d57600080fd5b611c3884828561274a565b509392505050565b600081359050611c4f81612e03565b92915050565b600081359050611c6481612e1a565b92915050565b600081359050611c7981612e31565b92915050565b600081519050611c8e81612e31565b92915050565b600082601f830112611ca557600080fd5b8135611cb5848260208601611c02565b91505092915050565b600081359050611ccd81612e48565b92915050565b600060208284031215611ce557600080fd5b6000611cf384828501611c40565b91505092915050565b60008060408385031215611d0f57600080fd5b6000611d1d85828601611c40565b9250506020611d2e85828601611c40565b9150509250929050565b600080600060608486031215611d4d57600080fd5b6000611d5b86828701611c40565b9350506020611d6c86828701611c40565b9250506040611d7d86828701611cbe565b9150509250925092565b60008060008060808587031215611d9d57600080fd5b6000611dab87828801611c40565b9450506020611dbc87828801611c40565b9350506040611dcd87828801611cbe565b925050606085013567ffffffffffffffff811115611dea57600080fd5b611df687828801611c94565b91505092959194509250565b60008060408385031215611e1557600080fd5b6000611e2385828601611c40565b9250506020611e3485828601611c55565b9150509250929050565b60008060408385031215611e5157600080fd5b6000611e5f85828601611c40565b9250506020611e7085828601611cbe565b9150509250929050565b600060208284031215611e8c57600080fd5b6000611e9a84828501611c6a565b91505092915050565b600060208284031215611eb557600080fd5b6000611ec384828501611c7f565b91505092915050565b600060208284031215611ede57600080fd5b6000611eec84828501611cbe565b91505092915050565b611efe816126d6565b82525050565b611f0d816126e8565b82525050565b6000611f1e826125d8565b611f2881856125ee565b9350611f38818560208601612759565b611f4181612925565b840191505092915050565b6000611f57826125e3565b611f6181856125ff565b9350611f71818560208601612759565b611f7a81612925565b840191505092915050565b6000611f90826125e3565b611f9a8185612610565b9350611faa818560208601612759565b80840191505092915050565b6000611fc36032836125ff565b9150611fce82612936565b604082019050919050565b6000611fe6601c836125ff565b9150611ff182612985565b602082019050919050565b60006120096024836125ff565b9150612014826129ae565b604082019050919050565b600061202c6019836125ff565b9150612037826129fd565b602082019050919050565b600061204f602c836125ff565b915061205a82612a26565b604082019050919050565b60006120726038836125ff565b915061207d82612a75565b604082019050919050565b6000612095602a836125ff565b91506120a082612ac4565b604082019050919050565b60006120b86029836125ff565b91506120c382612b13565b604082019050919050565b60006120db602e836125ff565b91506120e682612b62565b604082019050919050565b60006120fe6020836125ff565b915061210982612bb1565b602082019050919050565b60006121216031836125ff565b915061212c82612bda565b604082019050919050565b6000612144602c836125ff565b915061214f82612c29565b604082019050919050565b60006121676029836125ff565b915061217282612c78565b604082019050919050565b600061218a6029836125ff565b915061219582612cc7565b604082019050919050565b60006121ad602f836125ff565b91506121b882612d16565b604082019050919050565b60006121d06021836125ff565b91506121db82612d65565b604082019050919050565b60006121f36031836125ff565b91506121fe82612db4565b604082019050919050565b61221281612740565b82525050565b60006122248285611f85565b91506122308284611f85565b91508190509392505050565b60006020820190506122516000830184611ef5565b92915050565b600060808201905061226c6000830187611ef5565b6122796020830186611ef5565b6122866040830185612209565b81810360608301526122988184611f13565b905095945050505050565b60006040820190506122b86000830185611ef5565b6122c56020830184612209565b9392505050565b60006020820190506122e16000830184611f04565b92915050565b600060208201905081810360008301526123018184611f4c565b905092915050565b600060608201905081810360008301526123238186611f4c565b90506123326020830185612209565b61233f6040830184611ef5565b949350505050565b6000602082019050818103600083015261236081611fb6565b9050919050565b6000602082019050818103600083015261238081611fd9565b9050919050565b600060208201905081810360008301526123a081611ffc565b9050919050565b600060208201905081810360008301526123c08161201f565b9050919050565b600060208201905081810360008301526123e081612042565b9050919050565b6000602082019050818103600083015261240081612065565b9050919050565b6000602082019050818103600083015261242081612088565b9050919050565b60006020820190508181036000830152612440816120ab565b9050919050565b60006020820190508181036000830152612460816120ce565b9050919050565b60006020820190508181036000830152612480816120f1565b9050919050565b600060208201905081810360008301526124a081612114565b9050919050565b600060208201905081810360008301526124c081612137565b9050919050565b600060208201905081810360008301526124e08161215a565b9050919050565b600060208201905081810360008301526125008161217d565b9050919050565b60006020820190508181036000830152612520816121a0565b9050919050565b60006020820190508181036000830152612540816121c3565b9050919050565b60006020820190508181036000830152612560816121e6565b9050919050565b600060208201905061257c6000830184612209565b92915050565b600061258c61259d565b905061259882826127be565b919050565b6000604051905090565b600067ffffffffffffffff8211156125c2576125c16128f6565b5b6125cb82612925565b9050602081019050919050565b600081519050919050565b600081519050919050565b600082825260208201905092915050565b600082825260208201905092915050565b600081905092915050565b600061262682612740565b915061263183612740565b9250827fffffffffffffffffffffffffffffffffffffffffffffffffffffffffffffffff0382111561266657612665612869565b5b828201905092915050565b600061267c82612740565b915061268783612740565b92508261269757612696612898565b5b828204905092915050565b60006126ad82612740565b91506126b883612740565b9250828210156126cb576126ca612869565b5b828203905092915050565b60006126e182612720565b9050919050565b60008115159050919050565b60007fffffffff0000000000000000000000000000000000000000000000000000000082169050919050565b600073ffffffffffffffffffffffffffffffffffffffff82169050919050565b6000819050919050565b82818337600083830152505050565b60005b8381101561277757808201518184015260208101905061275c565b83811115612786576000848401525b50505050565b600060028204905060018216806127a457607f821691505b602082108114156127b8576127b76128c7565b5b50919050565b6127c782612925565b810181811067ffffffffffffffff821117156127e6576127e56128f6565b5b80604052505050565b60006127fa82612740565b91507fffffffffffffffffffffffffffffffffffffffffffffffffffffffffffffffff82141561282d5761282c612869565b5b600182019050919050565b600061284382612740565b915061284e83612740565b92508261285e5761285d612898565b5b828206905092915050565b7f4e487b7100000000000000000000000000000000000000000000000000000000600052601160045260246000fd5b7f4e487b7100000000000000000000000000000000000000000000000000000000600052601260045260246000fd5b7f4e487b7100000000000000000000000000000000000000000000000000000000600052602260045260246000fd5b7f4e487b7100000000000000000000000000000000000000000000000000000000600052604160045260246000fd5b6000601f19601f8301169050919050565b7f4552433732313a207472616e7366657220746f206e6f6e20455243373231526560008201527f63656976657220696d706c656d656e7465720000000000000000000000000000602082015250565b7f4552433732313a20746f6b656e20616c7265616479206d696e74656400000000600082015250565b7f4552433732313a207472616e7366657220746f20746865207a65726f2061646460008201527f7265737300000000000000000000000000000000000000000000000000000000602082015250565b7f4552433732313a20617070726f766520746f2063616c6c657200000000000000600082015250565b7f4552433732313a206f70657261746f7220717565727920666f72206e6f6e657860008201527f697374656e7420746f6b656e0000000000000000000000000000000000000000602082015250565b7f4552433732313a20617070726f76652063616c6c6572206973206e6f74206f7760008201527f6e6572206e6f7220617070726f76656420666f7220616c6c0000000000000000602082015250565b7f4552433732313a2062616c616e636520717565727920666f7220746865207a6560008201527f726f206164647265737300000000000000000000000000000000000000000000602082015250565b7f4552433732313a206f776e657220717565727920666f72206e6f6e657869737460008201527f656e7420746f6b656e0000000000000000000000000000000000000000000000602082015250565b7f45524337323155524953746f726167653a2055524920736574206f66206e6f6e60008201527f6578697374656e7420746f6b656e000000000000000000000000000000000000602082015250565b7f4552433732313a206d696e7420746f20746865207a65726f2061646472657373600082015250565b7f45524337323155524953746f726167653a2055524920717565727920666f722060008201527f6e6f6e6578697374656e7420746f6b656e000000000000000000000000000000602082015250565b7f4552433732313a20617070726f76656420717565727920666f72206e6f6e657860008201527f697374656e7420746f6b656e0000000000000000000000000000000000000000602082015250565b7f4d7573742077616974203330207365636f6e6473206265666f7265207761766960008201527f6e6720616761696e2e0000000000000000000000000000000000000000000000602082015250565b7f4552433732313a207472616e73666572206f6620746f6b656e2074686174206960008201527f73206e6f74206f776e0000000000000000000000000000000000000000000000602082015250565b7f4552433732314d657461646174613a2055524920717565727920666f72206e6f60008201527f6e6578697374656e7420746f6b656e0000000000000000000000000000000000602082015250565b7f4552433732313a20617070726f76616c20746f2063757272656e74206f776e6560008201527f7200000000000000000000000000000000000000000000000000000000000000602082015250565b7f4552433732313a207472616e736665722063616c6c6572206973206e6f74206f60008201527f776e6572206e6f7220617070726f766564000000000000000000000000000000602082015250565b612e0c816126d6565b8114612e1757600080fd5b50565b612e23816126e8565b8114612e2e57600080fd5b50565b612e3a816126f4565b8114612e4557600080fd5b50565b612e5181612740565b8114612e5c57600080fd5b5056fe646174613a6170706c69636174696f6e2f6a736f6e3b6261736536342c65794a755957316c496a6f67496c526f5a53424e6232356c6553314e59577470626d636754334a685932786c4945354756434973496d526c63324e796158423061573975496a6f67496b456763326c735a5735304947686c636d387549454567643246305932686d6457776763484a766447566a644739794c69424249473176626d56354c57316861326c755a79426b5a585a6c624739775a58497549697769615731685a3255694f6941695a474630595470706257466e5a53397a646d6372654731734f324a68633255324e43785153453479576e6c434d6c7059536e7068567a6c3155464e4a6545787151576c4a53476830596b6331656c4254536d396b53464a3354326b34646d517a5a444e4d626d4e3654473035655670354f486c4e5245463354444e4f4d6c70355355744a53475277576b6853623142545354424e5245463154555242643031455158646a534646705355646f624746585a47396b52444270546b5242643078715158644e52454633545568434d456c70516a4a685631597a555730354e4642545358644a5245466e546b5242643078715158644e5245463354554e424d4531455158564e524546335455524264306c6e6232646a53457073597a4a5765575274566b4a6a4d304a7357544e5355316c59556e4269656a42705a55557863467047624535685631466e596c645762475244535374445a323834576e6c434d474e74526e566a4d6c7032593230774f556c75556e6c5a567a5636596b64474d4670545a33644d616b46335455524264303144647a424e5245463154555242643031455158644c55304a3657544a47633170545a33644d616b563354555242643031446433524e517a523454555242643031455158424a5a33427459566434633142545357704e524546335455524264306c70516e706b5345703259544a564f556c744e585a6962565670554764764f474e48526a426851304a7255464e4b546b31715354524e553046365430526a4d6b6c485458524e56474e6e544652724d306c444d486c4e513046305456524e656b6c444d48684e615546305456525a656b6c455254524a517a417a54564e42656b31545158524e564645775355524e65456c444d48684f656d646e54554e42644535456130744e5645563453554d77656b31555357644e5645303153554d77656b31716132644f55304630546b4e42654531355158524e616b566e5456525a5a3078555454564a5247646e5446524e4e456c4554586c4a517a4179546e6c424d5535445158524f616d4e6e54314e4264306c455354524a517a423554586c424d4531355158524f5645464c5456525a5a3078555354524a5245313553554d774d5531445158704f65554630546c52425a3031555157644e5130457a53555246654531545158524e5645566e5458705665456c444d48684e55304634546c524a5a3078555932644e616d4d775355524664306c455354564e55304578535552565a3031715257644f51304636546d64766445317051586c4e51304630546e6c42656b35705158524f6155457954586c424d556c455254564a5247646e546b524e5a3031555657644f5645316e545652565a3031555157644e5130463554554e424e556c455358704a52456c33535552725a303136555764505647646e546c52565a3031555354424a52456b315355526e5a3078555a30744f656c6c6e5446524665556c455254564f55304630545652525a3031555158684a517a42355355524a654531705158525051304635546b526e5a3078555254424a5245307953554d774d6b6c45617a564a517a423454564e42654535455257644d5645563453555246643039545158644a5245563454586c42644539545154424f5a323930545652424d306c444d44524e51304630545652464e456c444d44564f6155463054577046656b6c444d44424f615546305457706a4d306c455258684a517a4234546b4e42655539445158524f5645466e545870725a3078555a33684a5245563353554d77656b31445158704f55304630543052465a3035555657644d5645563454586476654539545158524e656b6c6e545870565a3078555933644a5245307853554d774e4535355158644a517a423454314e42644531715257644d56466b7753554d774d5535545158524e56456c3353554d77656b31445158524f5247746e544652564d556c444d48684e5245566e544652564d556c444d48684e56466c6e54554e42644531555555744d5645563453554d77656b35705158524e616c566e544652524e556c444d48684f55304630545652525a3078555354464a517a4236546c4e42644531715657644d56465634535552425a3078555554424a5245307a53554d774d453535515452505130463054304e42654539545158684f5530463554304e4265453570515442505130457a5132704e4e556c444d4868505130463654554e42644535455457644d56456b7853554d774d6b35355158524e616d4e6e5446524665456c444d44465055304630545770465a3078555933684a517a423554564e42644531365257644e513046305457704a656b6c444d44464e513046305457704e4d556c444d444a4e55304630546d6c426445356e627a464f5130463054304e42654535715457644d5646566e54565242656b6c455357644e56474d77535552425a303155597a524a517a4178535552725a30785552544a4a517a4234546c4e42644531365932644d5646453153554d774d4535545158524f52474e6e5446524664306c444d44564f655546305458705a5a307855617a4e446154417854554e4264306c444d486c4e6555457854554e42644535555457644e5645453053554d774d6b35445158684e5647646e5446524a4d556c4552586c4f615546305458704e5a30315552544a4a517a42345456524a5a3078555932644d5646453153554d77656b3554515852505647646e544652564e456c444d44565051304630546e647664306c444d48704e51304630545652565a30785556586c4a517a423654586c42644535455457644d5645307a53554d774e4531355158524f5247746e54465246655531355158524e656d4e6e544652464d456c455657644d564645795355524665456c444d444e4e5130463454586c42644535455457644f55304630546b52525a3035526233524e616c566e544652464d456c455258684a517a423454554e424d5531545158524e616d746e543052725a3078555558684a52466b7853554d776555315451544e4e51304630545770565a3035365457644d564656365355524a5a3078555358644a517a413153554d774d4539545158524e656b316e5446527264306c444d486c4f5a323930546b524e5a3078555454424a517a4179546b4e42644531715932644d56474d785355524a4d556c444d44424e55304634545870565a3078555258684a52456c34546d6c424d6b314451544e4e5130457954564e42654531455a32645052456c6e5456525665456c455a336c4a52476330535552425a3031555654464a517a413054564676654535555657644d56455530546e6c4264306c444d44524f513046305456525a5a3078555258644f553046305456525265556c444d4868505645566e5446524665553154515852505245566e5446524a655531445158524e5645563453554d774d4535455457644d5645563654586c42644539555357644d5647746e54465246655535426233525055304630545652724e456c455657644d56455634546c4e42655531545158524e564530785355524e4e456c444d4868505245566e545652564d456c444d44424f655546345456526a5a30785555544e4a5245557854576c4264453154515868505645316e5458705a5a3031365357644f52456c6e546c52525a303171565764505247644c54465246656b6c455354424a517a4236546b4e42655535445158525052474e6e544652465a3078555354564a517a423454586c42644535455757644d56456b3153554d774d5535705158524f56456c6e544652464e456c444d44424e65554630546b52465a30785557586c4a517a42345455526e5a30785561336c4a517a423654564676644531555457644d5647637753554d774d4531355158524e5645553153554d774d6b35545158524e656c566e5446524a656b6c444d444a5055304630546b52465a307855597a4a4a517a417754564e42644535355158644a517a417754576c42644531555757644d56474d3153554d77656b35545158524f5647646e5446524e65454e704d48684e5646466e5446525664306c444d486c5052474e6e544652724d6b6c444d486c4e51304630546c4e42644535715257644d5645313453554d774e5531445158524f5647646e5446526e4d6b6c444d444e5051304630543052525a307855597a524a517a4234546b526a5a3078555258704a517a417a54304e424e4531426233524e56466c34535552464d3035545158524e56466c34535552464e4535445158644a5246566e545770525a3039445154464f513045305355524e64306c455157644f5647646e546b4e424d6b31545158684e5130463454554e42654535355158524e616d4e6e546d70425a3078555a7a4e4a5245563354564e42644535365a32644f5645314c5446526a4d306c455758644a524555785355526a4d456c455354464a5246466e546c52525a3031555457644f616c466e545770425a3031555757644e56456c6e5456526a5a3031555757644e6555463654304e42644539445158684f51304630546c52565a3035715a32644d56455633546c4e42654531715157644d564764335355526e4d454e704d44564e655546345455524e5a3078555258684e65554634546d70565a3078555254424a5246457853554d77655531705154564f513046305457704a5a3031555558644a5245466e545652524d306c444d486c5055304636546e704a5a3078555758684a5246457954314e42644531365457644e5645463553554d77656b356e6233684e5245316e5446524a4d3031355158684e5245316e5446524a654531705158644a517a4130546c525a5a3031555557644d56455634546d704e5a30317157576469517a42345430524e5a3035705158644a517a4179546e705a5a3031445158524f616d4d795355524a4e456c455757645a656b6b30546e6c424d6b35705154424f52474e4c5456524665456c455754524e615546345431524e5a30315556544a4a52465578535552464d3035545154465051304635545552565a3031365932644e5645566e5446526a5a3035366132644d56464634535552464d5531445158524f656c466e5458704e4d456c444d48684f5646466e546b525a4e556c444d486c4e5645316e546c526e64304e704d486c4f5645316e5457706e656b6c444d48684e5245566e545870464e556c444d48684e5646566e5458704a4e456c444d48684e656b466e54304e42644531555457644e55304630545870465a3078555458644a517a413054554e42644535455932644d56474d7953554d774e4535545158524e5645457753554d77654535556130744d5645563454314e42644531716132644d56466c6e544652464d4531545158524f52456c6e5446524a4d453570515852505245466e5446524e656b31445158524e5645557a53554d77656b31715457644d56455634546b4e426445313655586c4a517a4234546e70465a3078555254424a517a417754576c42644535455157644d5646553051326b774d6b31355158524f5245566e5446524e4d556c455354464a517a41775430525a5a3031715354564a517a4178546c525a5a3031715658684a517a423554554e424d306c444d48684e656b466e546c526e5a3078555354424e655546345456524a5a3078555258684e65554578546c4e42644531715258704a5247733151326b77655531715357645056474e6e544652725a3078555357644d5645557a53554d77654531545158524e56474e6e5446524a65456c455157644d56456b7853554d77656b31445158524f5245466e5446525a4d556c444d48704e61554a7a5446524e64306c455932644e513046305458706e65456c455157644d5645303054564e42655535526233644a52303134546b4e4264306c455258684f553045315355524a6555313551586c4e513046345455526e5a3031555257644e656b46365355524a4d6b6c455558704e61554636546c4e42655535365557644e5647646e546c524e656b6c455454564a52474d30546c4e424d6b3554515456505530463454554e42654539455457644e56466c4c5456526e4e456c455258704a52456b7853554d77654535545158524e656b6c6e544652464d4539445158524e56456c3453554d77655539455157644d56456c3453554d77656b31705158524f5645566e5446526e65456c444d444a4f655546305456524664306c444d48684f553046305457706e5a3078555454464a517a4178546c4676644535455557644d5646553053554d774e556c444d44424a517a4178546b4e42644531555257644d5645563354564e42644531555757644d5646457a53554d774d556c444d48684f56456c6e544652464e456c444d486c4e656c566e5446524a4e556c444d48684f616b466e5446524a65456c444d44464f656c6c6e5446526a65554e704d444e4e656d746e5446527264306c444d44464f51304630546e6c42644531555154524a517a4234546d6c42644531555358644a517a423554554e42644531555357644d5646566e543052464e556c444d44564a52455530546e706a5a30785561326469524555305431526a5a3078555257644e51304634546c524a64306c4854586444616d6436546d6c42644531355158684f56456c3353554d774d6b6c455254464e616b466e544652525a3031445158524e616b6c6e54465246656b6c444d44424e55304630545870425a3078555454564a517a4236546c4e42644535715357644d5645307a53554d77654531556132644d5645563453554d77655539445158684e64323930546c52465a3031365657644d56474d795355526a65556c444d4442505530457a546b4e4264453555575764505645466e544652564d6b6c4552586c4e553046335355524a4d456c455932644e616d746e546e70525a3035555357644f5245566e545652525a3031555154524a52453030535552464d4539545154464e61554a7a546e7056533031715757644e51304636545870725a3031445158704e656d746e5446526e4d4539445158644a517a4130546b526e5a3031445158524e616b316e54465246655535496232646956455577545870725a3078555554524f55304a71546c4e42644531555257644e5645466e5446524a4e556c455258644a517a417754564e4264304e704d48704e55304630546b52525a3078555354424a517a417754304e424e456c444d444e4a52464530535552464e456c455754564a524530305355524e656d567053585a515a323834593064474d474644516d74515530704f545770724d5535705158704f524530775355644e644535555257644d5645557953554d774e5535705158524f5245566e544652724d6b6c444d44464f5130463353554d774d456c455258684a517a423454576c42655535545158524e5647646e5458704e5a3078555254464a5245313451326b77655539445158524f65554630546b526e5a30785555586c4a517a423554564e42644535365a32644d5646557753554d774d3039445158524f656b466e54554e42644535355154564a517a423454304e42655531545158524e616c466e5456526a5a3078555258644a52456b7853554d774d6b6c455658704a52456b77535552524d454e715554564a52474d7a535552524d6b6c455a7a524a517a41315355524e5a30785552544e4a5245557753554d776555315451544a50513046305457705a5a3035556132644d56466c6e546d706a5a307855555764505647646e545770425a3031365357644e616c566e546e704a5a3039455357644f656b6c6e5456524265556c455155744e616b566e5446525a4d6b6c456133684a517a413154314e42654531455657644d56464635535552464e456c444d44524e61554634546e6c42644531555554464a517a42355a576c4a646c426e627a686a5230597759554e4361314254536b354e656b3078546d6c42655539455358684a523031305458704e5a30785554544a4a5245563553554d774d55355451544a5055304630545770725a3031715a32644e5645316e545870425a3031556132644e5645316e5458705a5a3078555254524a5245553053554d774d6b31355158684f515739305430524a5a3078555a445a4a615467725132703464316c59556d394a5231453553577377656b31555758704a52456b785458704e5a316c354d486c4e5530463054304e42644531555657644d56456c365355524664306c444d486c4e6555463554576c4264306c4557586c4a52456c335355525264306c455358644a517a4179535552425a30785552544e4a52456c6e5446524a4d554e715557644d56474e6e54586c42644531556132644e61554630545770565a307855526a5a4a615467725132703464316c59556d394a5231453553577377656b31555933644a52456c34543052465a316c365157644d56455635535552524e556c444d44464e5530457954586c42644535555257644f6155463353554d7765556c455254424a517a423454304e42656b31445158524e616d746e545870425a3078555554464a5245303053554d774d45355262336c4e5747397054486f3053314249516d686b5232646e576b517761565255525456505645466e5456525a64303544516d704e51304630545652525a3031555154424a517a4234545552525a3031555358684a517a4234545552525a3031715257644e5130463654586c42656b315451586c4f5130457954554e42644535545158684f51304630545652565a3031715155744d564530305355524a64306c444d4868505130463453554d774d45313551544e4a517a4178546e6c42654535545158524e616c6c6e545652565a3078555658644a5245553153554d774d5531445154566c61556c32554764764f474e48526a426851304a7255464e4b546b31445158684e656b30785355644e64306c444d44564a5246566e544652464d556c455258684a517a423454586c42654535445154464a524555775355524a65456c455157644e616c6c6e5446525a5a3031705158524e5645566e544652525a3078555258684a517a423454544e76615578364e457451517a6c75554764764f45777a546a4a61656a524c4969776959585230636d6c696458526c637949364946743749434a30636d4670644639306558426c496a6f67496b4a68633255694c434169646d4673645755694f69416955335268636d5a7063326769494830736579416964484a686158526664486c775a53493649434a466557567a49697767496e5a686248566c496a6f67496b4a705a7949676653783749434a30636d4670644639306558426c496a6f67496b31766458526f49697767496e5a686248566c496a6f67496c4e31636e427961584e6c5a4349676653783749434a30636d4670644639306558426c496a6f67496b786c646d567349697767496e5a686248566c496a6f674e5342394c487367496e527959576c3058335235634755694f6941695533526862576c755953497349434a32595778315a534936494445754e4342394c487367496e527959576c3058335235634755694f69416955475679633239755957787064486b694c434169646d4673645755694f6941695532466b496942394c487367496d52706333427359586c6664486c775a53493649434a696232397a64463975645731695a5849694c43416964484a686158526664486c775a53493649434a4263585668494642766432567949697767496e5a686248566c496a6f674e44416766537837496d52706333427359586c6664486c775a53493649434a696232397a644639775a584a6a5a5735305957646c4969776964484a686158526664486c775a53493649434a54644746746157356849456c7559334a6c59584e6c49697769646d4673645755694f6941784d483073657941695a476c7a63477868655639306558426c496a6f67496d353162574a6c6369497349434a30636d4670644639306558426c496a6f67496b646c626d567959585270623234694c434169646d4673645755694f69417949483073657941695a476c7a63477868655639306558426c496a6f67496d5268644755694c43416964484a686158526664486c775a53493649434a6961584a30614752686553497349434a32595778315a534936494445314e44597a4e6a41344d44416766563139a26469706673582212208dad1cdd4ee72b0229c620e882fb02dc1c5e713f94ffb546b62d91d8dd20c87664736f6c63430008040033",
  "linkReferences": {},
  "deployedLinkReferences": {}
}